:1000000055C0000070C000006EC000006CC0000051
:100010006AC0000068C0000066C0000064C0000044
:1000200062C0000060C000005EC000005CC0000054
:100030005AC000004FC4000056C0000054C0000069
:1000400052C0000050C000004EC000004CC0000074
:100050004AC0000048C0000046C0000044C0000084
:1000600042C0000040C000003EC000003CC0000094
:100070003AC0000038C0000036C0000034C00000A4
:1000800032C0000030C000002EC00000FA01FD01A7
:1000900000020302060209020C020F021E023302D2
:1000A00048025D02720287029B02AF0211241FBE4A
:1000B000CFEFD0E4DEBFCDBF11E0A0E0B1E0E6ECD1
:1000C000FFE000E00BBF02C007900D92AE33B10716
:1000D000D9F727E0AEE3B1E001C01D92AE37B20719
:1000E000E1F792D26EC78CCFCF93DF93EC0145D569
:1000F00020913E0130913F01CE01820F931F8C3D34
:1001000045E0940758F42817390758F4E901C05C12
:10011000DE4F90933F0180933E0105C0C0E0D0E0E8
:1001200002C0C0E0D0E0F0D5CE01DF91CF910895BC
:100130000895FC010396928381832FEF3FEF348370
:100140002383968385839087878310820895FC019B
:10015000118610860895CF93DF93FC01DB01218186
:100160003281E9018A819B8113969C938E93129729
:100170008181928115969C938E9314978A819B819D
:10018000EC017D836C83E9017B836A8372836183E5
:100190001996FC93EE93189780818F5F8083DF918F
:1001A000CF910895CF93DF93EB01488159814F3F61
:1001B0002FEF520731F4DC011796ED91FC9118975F
:1001C00017C0FC013396DC0115962D913C911697D2
:1001D000D9012D913C914217530750F00280F381D1
:1001E000E02DA281B3812D913C9142175307B0F7C6
:1001F000A281B381BB83AA831596DC93CE93149717
:10020000FD83EC83D383C28399878887FC01208197
:100210002F5F2083DF91CF910895FC01A281B381EC
:100220008481958115969C938E931497A481B581B2
:100230008281938113969C938E931297A085B185AA
:1002400011968D919C9112978E179F0731F484819E
:10025000958112969C938E931197118610868C919E
:1002600081508C930895FFDF813081F0E1ECF0E064
:10027000808188618083E2ECF0E080818660808309
:1002800083E38093C4001092C5000895E9ECF0E088
:10029000808188618083EAECF0E0808186608083E1
:1002A00083E38093CC001092CD000895813029F42F
:1002B0008091C800882384F008958091C00088232D
:1002C000ACF4A6ECB0E0E0ECF0E08C9180931C077D
:1002D00080818823D4F30895AEECB0E0E8ECF0E040
:1002E0008C9180931C0780818823D4F308958130FA
:1002F00041F0E0ECF0E080818823ECF78091C600CB
:100300000895E8ECF0E080818823ECF78091CE003E
:10031000089580917D07882319F0813039F004C059
:1003200081E080937D0702C0813031F58091C0006B
:10033000882314F580E0DBDF80931D0780E0B6DFC3
:1003400080911D078A3019F481E088B90BC08B3089
:1003500019F482E088B906C08C3019F484E088B9B9
:1003600001C018B82FE784E89EE1215080409040FA
:10037000E1F700C0000018B80895CBDF82E390E0F9
:1003800044D5FBCF80917C07813019F0823019F081
:1003900004C018B802C080E188B980917C07813020
:1003A00041F018F0823069F0089581E080937C0775
:1003B000089580911F07813059F482E080937C0773
:1003C000089580911F07811103C081E080937C070D
:1003D0000895D8DF84E690E018D5FBCFE0917A0746
:1003E0008E2F90E0FC013197E830F105D0F4EA5B04
:1003F000FF4FC8C581E082B914C083E082B911C043
:1004000082E082B90EC086E082B90BC084E082B976
:1004100008C08CE082B905C088E082B902C089E0DA
:1004200082B9E0917A078E2F90E0FC013197E83095
:10043000F10508F0A7C0E25BFF4FA4C580911F073C
:10044000813009F09FC080911E0790E0209100014B
:10045000309101018217930719F082E080937A07A7
:1004600010921E07089580911F07813009F08AC0FD
:1004700080911E0790E020910001309101018217C8
:10048000930719F083E080937A0710921E0708956E
:1004900080911F07813009F075C080911E0790E0A0
:1004A00020910001309101018217930719F084E037
:1004B00080937A0710921E07089580911F0781305C
:1004C00009F060C080911E0790E0209100013091FA
:1004D00001018217930719F085E080937A07109243
:1004E0001E07089580911F07813009F04BC080914D
:1004F0001E0790E0209100013091010182179307BF
:1005000019F086E080937A0710921E070895809173
:100510001F078130B9F580911E0790E020910001FE
:10052000309101018217930719F087E080937A07D1
:1005300010921E07089580911F07813019F5809150
:100540001E0790E02091000130910101821793076E
:1005500019F088E080937A0710921E070895809121
:100560001F07813079F480911E0790E020910001EF
:10057000309101018217930719F081E080937A0787
:1005800010921E0708952ADF83E090E03ED4FBCF4F
:10059000AF92BF92CF92DF92EF92FF920F93CF93E1
:1005A000A12CB12CC12CD12CE12CF12C082F20E056
:1005B00030E045E550E064E071E083E391E0C1D1D3
:1005C00020E030E045E550E060E171E089EE91E047
:1005D000B8D120E030E045E550E06FE171E083EC18
:1005E00092E0AFD120E030E045E550E06DE271E00F
:1005F0008DEB91E0A6D1CF910F91FF90EF90DF901E
:10060000CF90BF90AF9008958FEF81B912B814B812
:1006100085B987B918B880E027DE81E0B9DF84D2D8
:1006200080E090E0089531E1FC013083319722E2CF
:1006300020833197A3E3A083319760833197708340
:1006400031971082319760E860833197108231973B
:1006500062E06083319763E06083319764E0608398
:10066000319765E06083319766E06083319767E09A
:100670006083319768E06083319769E060833197E8
:1006800060E1608331973083319732E13083319775
:1006900033E13083319734E13083319735E1308372
:1006A000319736E13083319737E13083319738E144
:1006B0003083319739E13083319730E2308331979D
:1006C00031E2308331972083319723E220833197C1
:1006D000408331975083319726E22083319727E278
:1006E0002083319728E22083319729E220833197B4
:1006F00020E32083319721E3208386970895109289
:1007000089008CE7809388008BE080938100EFE67E
:10071000F0E0808182608083A0917807B0917907B2
:10072000CD91CDBFDD91DEBFFF91EF91DF91CF91F4
:10073000BF91AF919F918F917F916F915F914F91F9
:100740003F912F911F910F91FF90EF90DF90CF90ED
:10075000BF90AF909F908F907F906F905F904F90E1
:100760003F902F901F900F900FBE0F90089581E043
:1007700008950F920FB6F8940F921F9211242F92A2
:100780003F924F925F926F927F928F929F92AF9221
:10079000BF92CF92DF92EF92FF920F931F932F930E
:1007A0003F934F935F936F937F938F939F93AF93F9
:1007B000BF93CF93DF93EF93FF93A0917807B0910E
:1007C00079070DB60D920EB60D9270D3A0917807F1
:1007D000B0917907CD91CDBFDD91DEBFFF91EF9153
:1007E000DF91CF91BF91AF919F918F917F916F9149
:1007F0005F914F913F912F911F910F91FF90EF903B
:10080000DF90CF90BF90AF909F908F907F906F9030
:100810005F904F903F902F901F900F900FBE0F90C2
:1008200008950F920FB6F8940F921F9211242F92F1
:100830003F924F925F926F927F928F929F92AF9270
:10084000BF92CF92DF92EF92FF920F931F932F935D
:100850003F934F935F936F937F938F939F93AF9348
:10086000BF93CF93DF93EF93FF93A0917807B0915D
:1008700079070DB60D920EB60D9285D117D3A091C2
:100880007807B0917907CD91CDBFDD91DEBFFF91A3
:10089000EF91DF91CF91BF91AF919F918F917F9118
:1008A0006F915F914F913F912F911F910F91FF9009
:1008B000EF90DF90CF90BF90AF909F908F907F9000
:1008C0006F905F904F903F902F901F900F900FBEB2
:1008D0000F900895A6DF1895CF93DF93EC01E09178
:1008E0007807F0917907938382838091280790910C
:1008F0002907C817D90760F46091780770917907C4
:1009000080913E0790913F076E5F7F4F4BDC16C092
:100910006091780770917907809140079091410725
:100920006E5F7F4F3FDC8091020190910301C817F9
:10093000D90720F4D0930301C0930201DF91CF9136
:1009400008954F925F926F927F928F929F92AF9293
:10095000BF92CF92DF92EF92FF920F931F93CF93AC
:10096000DF935C014B013A01290181E290E0BCDB9D
:10097000EC01892B09F4C6C0C114D10409F0BEC032
:10098000C301B2DB988F8F8B009719F4CE01D0DBB7
:10099000B9C0A30165EA70E0FED29301215031098C
:1009A0008F89988D3C01620E731E48E050E0B401BF
:1009B000CE014996F7D218A2102F043008F013E0A8
:1009C0001E8B6E0182E0C80ED11CC601C0DBCE01B9
:1009D0000C96BDDBD987C88784E090E0811B910924
:1009E0009D878C87DB8BCA8BA201B501C3011BDEFF
:1009F00099838883E114F10419F0F701D183C0834E
:100A00000FB6F8940F9280912A078F5F80932A0780
:100A10008091780790917907892B69F5D0937907B0
:100A2000C093780780912A078130A1F584E597E08B
:100A300080DB8DE597E07DDB86E697E07ADB8FE66D
:100A400097E077DB8BE497E074DB82E497E071DB7F
:100A500085E397E06EDB8CE297E06BDB8BE497E05D
:100A6000909341078093400782E497E090933F077B
:100A700080933E070FC08091250781110BC0E09144
:100A80007807F09179078689081720F0D0937907C5
:100A9000C09378078E8990912707981710F4809358
:100AA0002707909120079F5F90932007909126073A
:100AB000981710F48093260790E09C01220F331FB3
:100AC000220F331F220F331F820F931FB6018C5A40
:100AD000984F41DB0F900FBE80912507882351F07E
:100AE000E0917807F09179078689801728F441DE34
:100AF00081E009C081E007C081E005C0D88ECF8ABF
:100B0000C60147CF8FEFDF91CF911F910F91FF90DB
:100B1000EF90DF90CF90BF90AF909F908F907F909D
:100B20006F905F904F900895AF92BF92CF92DF92F7
:100B3000EF92FF920F93A12CB12CC12CD12CE12C60
:100B4000F12C00E020E030E045E550E068E371E0A2
:100B500080E297E0F6DE813041F4F8948093250737
:100B60001092290710922807CADD0F91FF90EF908D
:100B7000DF90CF90BF90AF900895809124078F5F52
:100B80008093240708950F931F93CF93DF93809151
:100B900024078111AFC08091280790912907019601
:100BA000909329078093280780912807909129071F
:100BB000892B99F5809140079091410720913E073C
:100BC00030913F07309341072093400790933F07B0
:100BD00080933E07809121078F5F80932107E091EA
:100BE0004007F09141078081811107C08FEF9FEF8F
:100BF000909303018093020110C0E0914007F091AF
:100C000041070580F681E02D0680F781E02D828185
:100C100093819093030180930201209128073091E2
:100C2000290780910201909103012817390708F4E0
:100C300066C0E0914007F09141078081882399F0D8
:100C4000E0914007F09141070580F681E02DC681D3
:100C5000D7818A819B812091280730912907281705
:100C60003907F8F419C08FEF9FEF90930301809339
:100C7000020145C0E0914007F09141070580F681EF
:100C8000E02DC681D7818A819B81209128073091F0
:100C900029072817390728F490930301809302014C
:100CA0002EC08E010E5F1F4FC801B7DA8C899D8957
:100CB000892B19F0CE010C96B0DA2E898091260787
:100CC000821710F42093260730E0C901880F991F7E
:100CD000880F991F880F991F820F931FB8018C5A94
:100CE000984F39DAE0914007F091410780818111F6
:100CF000C1CFB9CF809123078F5F80932307DF9106
:100D0000CF911F910F910895CF92DF92EF92FF92B2
:100D10000F931F93CF93DF930FB6F8940F928091A8
:100D200024078150809324078091240781115FC09C
:100D300080912A0781112FC05DC0D7011596ED91D2
:100D4000FC911697C681D781CE010C9666DA8E018A
:100D50000E5F1F4FC80161DA2E8980912607821726
:100D600010F42093260730E0C901880F991F880FDF
:100D7000991F880F991F820F931FB8018C5A984FA3
:100D8000EAD9E0917807F09179079E8986899817CA
:100D900058F0DC2C09C0D12C0F2EF5E3EF2EF7E034
:100DA000FF2EF02DCC24C394F70180818111C5CF93
:100DB00080912307882379F080912307882391F07D
:100DC000E2DE8091230781508093230780912307DF
:100DD0008111F6CF07C0F1E0DF1621F080912207E4
:100DE000813039F410922207C4DC81E003C080E036
:100DF00001C080E00F900FBEDF91CF911F910F9146
:100E0000FF90EF90DF90CF900895CF93DF93EC01A8
:100E1000892B91F0B2DE8091280790912907C80FA5
:100E2000D91F80917807909179070296F6D9CE0163
:100E300053DD6ADF811101C09CDCDF91CF91089501
:100E40000F2EFCE2EF2EF7E0FF2EF02DC4E5D7E0E9
:100E500080912B07882329F190DED7011C9154DF64
:100E60001123F9F00FB6F8940F92D7011596ED9172
:100E7000FC91169706811781C8010296CED9809100
:100E80002A07815080932A0780912B0781508093F5
:100E90002B070F900FBEF8018789908D49D9C801A3
:100EA00047D988818230A0F264DCD2CF80912407B8
:100EB000811113C08091260790E0FC01EE0FFF1F07
:100EC000EE0FFF1FEE0FFF1F8E0F9F1FFC01EC5A4E
:100ED000F84F8081882329F01BC081E0809322078E
:100EE00008958091260781508093260780912607D8
:100EF00090E0FC01EE0FFF1FEE0FFF1FEE0FFF1F34
:100F00008E0F9F1FFC01EC5AF84F8081882349F314
:100F10008091260790E09C01220F331F220F331F80
:100F2000220F331F280F391FD901AC5AB84F119621
:100F3000ED91FC9112970280F381E02D1296FC93C3
:100F4000EE931197295A384FE217F30729F42281BB
:100F50003381FD0132832183FC01EE0FFF1FEE0F71
:100F6000FF1FEE0FFF1F8E0F9F1FFC01EC5AF84F63
:100F70000180F281E02D868197819093790780939B
:100F800078070895EE0FFF1F0024001C0BBE07908A
:100F9000F691E02D0994DC0101C06D934150504061
:100FA000E0F70895FB01DC014150504048F001900A
:100FB0000D920020C9F701C01D9241505040E0F74A
:060FC0000895F894FFCF34
:100FC6000800FFFF534D5F4C45445F5461736B004F
:100FD600534D5F4C69676874735F5461736B00535C
:100FE6004D5F4D6F746F725F5461736B0055534163
:0E0FF60052545F5461736B0049444C45000037
:00000001FF
